:400000000080002011000000850B0000850B000008B5044B1A6803F53F5302331A6000F0D1FD00BFFA46004010B5054C237833B9044B13B10448AFF300800123237010BD89
:400040008081FF1F00000000C8280000084B10B51BB108490848AFF300800848036803B910BD074B002BFBD0BDE81040184700BF000000008481FF1FC8280000C880FF1FB2
:4000800000000000034B1B78034A136801331360704700BF034F00409C81FF1F70B5434C2068434D2A88104400B24249888063681A4412B2CA80A6684FF47A7393FBF6F3AA
:4000C0009BB20B8132266E80A4894C810121A980B0F57A6F03DD4FF47A60364988803549B1F90410002902DA002032498880B2F57A6F03DD4FF47A612E4AD1802D4AB2F92D
:400100000620002A02DA00212A4AD18013B90122284B1A8114B90122264B5A81254AB2F9043093810021D1811846B2F906108B4207DD002218E0204C24F812300133013284
:4001400000E000228B42F6DD04E01B4921F81230013B01328342F8DA164B1A8210E0164C24F81230013B01328B42F8DA04E0124921F81230013301328342F8DD0D4B1A82EA
:400180000B4BB3F90000002800DA0F30C0F3071001F090F9074CA08900F0BEFD01F010F9002323606361A36170BD00BF70C8FF1FCC80FF1F9C81FF1F2082FF1F70B53B4CD6
:4001C00020683B4D2A88104400B23A49888063681A4412B2CA80A6684FF47A7393FBF6F39BB20B8132266E80A4894C810121A980B0F57A6F03DD4FF47A602E4988802D49DC
:40020000B1F90410002902DA00202A498880B2F57A6F03DD4FF47A61264AD180254AB2F90620002A02DA0021224AD18013B90122204B1A8114B901221E4B5A811D4AB2F9B2
:40024000040090810023D3810346B2F90610884207DD002210E0184820F812300133013200E000228B42F6DD124B1A8208E0124820F81230013B01328B42F8DA0D4B1A82CE
:400280000B4BB3F90000002800DA0F30C0F3071001F010F9074CA08900F03EFD01F090F8002323606361A36170BD00BF70C8FF1FCC80FF1F9C81FF1F2082FF1F70B5294B69
:4002C0001968294DB5F90040A6B2314409B2274881805A68324412B2C2800A266E809D68C561DD684FF4FA7393FBF5F39BB20384B1F57A6F03DD4FF47A601C4988801B49FE
:40030000B1F90410002902DA002018498880B2F57A6F03DD4FF47A61144AD180134AB2F90620002A02DA0021104AD18013B901220E4B1A840D4B9A889A812046002C01DA4C
:4003400004F10F00C0F3071001F0B4F8074CA08900F0E2FC01F034F8002323606361A36170BD00BF70C8FF1FCC80FF1F9C81FF1F08B5094A1168094BD980516819819168D4
:40038000074A5184B3F90000002800DA0F30C0F3071001F08FF808BD70C8FF1FCC80FF1F9C81FF1F08B5254B1B68102B23D006DC042B2ED0082B25D0022B3AD131E0322B6D
:4003C0000BD0642B02D0192B33D10DE0002001F0DBF814221A4B5A8108BD022001F0D4F82822174B5A8108BD032001F0CDF85022134B5A8108BD042001F0C6F87822104B31
:400400005A8108BD052001F0BFF8FA220C4B5A8108BD062001F0B8F84FF4FA72084B5A8108BD072001F0B0F84FF47A72044B5A8108BD044801F080FC08BD00BF70C8FF1F62
:40044000CC80FF1FCC28000030B593B062B68A4801F0B2FC01F032FC00F050FC01F000F901F0C8F801F05EF800F096FF01F0EAFB824801F061FC824801F05EFC0023814ABA
:400480005362814A13600AA800F0AEF938B10AA800F07CF9202200210AA801F0E8FC7A4B1B68013B062B77D8DFE803F032040E1A263B6200754801F03FFC754801F03CFC68
:4004C0000022714B1A6067E0724801F035FCFFF7E5FD01226B4B5A6200226B4B1A605BE06D4801F029FCFFF769FE0122654B5A620022654B1A604FE0684801F01DFCFFF7A5
:40050000DDFE02225F4B5A6200225F4B1A6043E0634801F011FC00235A4A53625A4A13603AE0604801F008FC5F4CB4F90830B4F90620544DB5F9221000915C4902A801F045
:400540009FFC02A801F0F8FBFFF712FFB4F90830B4F90620B5F922100091554902A801F08FFC02A801F0E8FB0022474B1A6013E0504801F0E1FBFFF715FF4B4BB3F90A30D4
:400580004D4A12684D4902A801F07AFC02A801F0D3FB00223C4B1A603A4B5B6A012B02D0022B57D06FE7374A516913685B1A128993421FD933480A444261836A0133836200
:4005C000B0F91020934204DB00228262C2890132C2812C4BDA895B899A4202D30022294B5A62284B996A364A32F91100988180B200F092FB234B99691B685B1A2A4A528836
:4006000093427FF640AF1F4C0A44A26100F0E0FE00F006FF4042244AB2F90A3090FBF3F0B2F9063000FB03F0B2F9083090FBF3F3B4F922101944B4F90C00B2F90030E28961
:400640000091C31A1F4902A801F01AFC02A801F073FB18E70B4A516913685B1A128C934245D9084B0A445A61DB6A6BBB054BDA889A810122DA622CE085000000102900009E
:40068000382900009C81FF1FCC81FF1F502900008C290000C8290000082A00004C2A00008C2A0000A82A0000CC80FF1FE42A0000082B0000302B000070C8FF1F5C2B000001
:4006C0002082FF1F9C2B0000214B9A889A810022DA621F4CA08900F01FFB2268E3699A4205D91C4B188800F017FB00226262184B99691B685B1A174A528893427FF6C3AEFC
:40070000134C0A44A26100F063FE00F089FE4042104AB2F90A3090FBF3F0B2F9063000FB03F0B2F9083090FBF3F3B4F922101944B4F90C00B2F9003022680091C31A0649D8
:4007400002A801F09DFB02A801F0F6FA9BE600BF9C81FF1FCC80FF1FBC2B000038B5054600240BE0074B53F82410284601F0ACFB18B9054B1C60012038BD0134072CF1DDE8
:40078000002038BDD880FF1FCC81FF1F10B5134B00221A601A71124901F0A0FB18B90122104B5A6010BDFFF7D9FF78B902220D4B5A6010BD0A49002001F090FB48B101F061
:4007C0001BFB064B43F82400013400E00024042CF0DD0022034B5A60012010BD70C8FF1FDC2B0000CC81FF1F10B5044601F08CFA034630B301F07EFAC0B2082807D1124A2C
:40080000137A2021E154013B1372002319E00D2801D00A2807D100220B4B1A720B4801F08BFA01230DE0084B1B7A1F2B04D90022054B1A72012304E0E0540133024A13729C
:400840000023184610BD00BFCC81FF1F482A0000FEE700BFF0B40022174611E050F82760F3B226F0FF0608E001EB420511F812406D78A5550132013BDBB2002BF4D10137CE
:40088000192FEBD9F0BC704710B4214B1B78DBB203F007011F4A11701B090132137006221D4B1A704DF220021F331A8080231B4A137002F2347213708422194B1A705022A5
:4008C00010331A70082110331970022204331A7010231448037003245830047018300370202428300470033001700F490B700F4B1A70232242331A70C02212331A700122EE
:4009000003331A704422A3F2E5231A7010BC7047CF0100496E5800400D5100403C510040005A0040285A0040005B0040045B004008B50A46002101F09AFA08BD08B501F0A1
:400940008BFA08BD38B50024344B1C80502202331A70192502331D801823314A13705F21023211800232137040F65F11023211800232137004222B492B48FFF7DFFF022264
:400980002A4B1A7008224FF040231A70032103F500731970264B1B78DBB226490B70264B1A8041F25122023B1A800CE0234B1B7803F0010343EA440404F003044FF4F070D0
:4009C00001F00AFA013D0DB1032CEFD115B90320FFF73EFF1A4B4FF480721A8007221A70002218490A704820023108701A700222033B1A7004220A331A70134A137843F07E
:400A00000F031370013A137843F001031370013A137843F08003137038BD00BF804000408640004094030048004100400043004008010049A1460040224200402542004041
:400A40000440004006400040A243004038B572B6394A137843F00403137000240CE0374D630019194A0011462A44084691882858FFF75EFF0134E4B2082CF0D900240CE01D
:400A80002E48A20011194B000344B3F84020D96B986BFFF753FF0134E4B2012CF0D928494FF09040FFF7D6FE0A25264B1D7004212548FFF73DFF254A137843F00203137017
:400AC0001032137843F002031370214C237843F040032370A2F58632513A137843F01003137008221B491C48FFF728FF2A461B491B48FFF723FF08221A491B48FFF71EFFCE
:400B000008221A491A48FFF719FF1A4A137843F008031370184D61232B70FFF713FF81232B700122154B1A70FFF7AEFE0E2221461348FFF703FF38BDE8460040042C000011
:400B400068000048835800400076004003500140A0430040700300480251004078030048C051004084030048125100408C0300482251004022430040004800400400084066
:400B8000B043004008B501F03BF903680C2B00D1FEE7FEE708B5094B1A681044084BC31A802B02DC054B186005E001F029F90C2303604FF0FF32104608BD00BFF880FF1F11
:400BC00090C8FF1F08B5104E104D16E029686B68AC68002204E051F8040B43F8040B0432A242F8D1E868002203E0002143F8041B04328242F9D11035013E002EE6D101F020
:400C000005F9FFF721FCFEE701000000AC2D000008B5114A114B1A60114A136843F40073136000230AE0032B03D80E4A52F8231000E00D490D4A42F8231001332F2BF2D9C5
:400C40000B4B1A780B4B1A70084A0B4B1A60FFF7FDFE00F09BFE08BD0004FA050CED00E014ED00E000000000850B00000080FF1FBC760040C080FF1F08ED00E070B54FF453
:400C8000804341F6FF720121084600F0F7FC0C4E354605F8040B00F009FF0246094C20700123102100F01CFF45F68332A9B2207800F02AFF2178307800F0CAFE70BD00BF2F
:400CC000E081FF1FFC80FF1F08B500F033FD034B1B78FF2B01D1FFF7D1FF08BDFC80FF1F08B50121044B187800F06AFE00F038FD00F0E2FC08BD00BFE081FF1F08B5054BE3
:400D00001B7D23B9FFF7E0FF0122024B1A75FFF7E7FF08BDE081FF1F38B500F00F05C0F30714B0F57F6F02D9002000F0FBFEFF2C08D0002318E00E4A1A44FF21117101336B
:400D4000DBB200E000230F2BF5D938BDC5F11002934203DA064A1A44147103E0044A1A44611C11710133DBB20F2BEFD938BD00BFE081FF1F38B59DF81040651EEDB2032D91
:400D800051D8013809282ED8DFE800F0052D2D052D2D0F192D230F2B03D92548007840B222E02448007840B21EE00F2B03D92248007840B218E02148007840B214E00F2B07
:400DC00003D91F48007840B20EE01E48007840B20AE00F2B03D91C48007840B204E01B48007840B200E0002001EB401101FB02F2D20B91B20D2B0BD8C3F10E0192B20A414F
:400E000091B2621E124800EB82020133937005E0631E0F4A02EB83030F229A70013C0C4B23F8241038BD002000F07CFE38BD00BF180100491C010049190100491D010049DA
:400E40001A0100491E0100491B0100491F010049F881FF1FF8B5074600F0C6FF06460D4D2B7843F003032B700B4C237843F0030323700A4B1F70032000F056FE2B7803F0D6
:400E8000FC032B70237803F0FC032370304600F0AFFFF8BDF8460040F946004092580040F8B504460022BA4B1A74012858D13822B84B1A70042202331A700723B64A137011
:400EC000002501321570013215703F210132117002321570013215700132157001260A321670502102F527621170013213702922AA4B1A7001331D70552203331A705A22D1
:400F000001331A7001331D7002331E70112201331A70192201331A70972201331A704420FFF798FF58229E4B1A7001331D7005200533187001331E7001331D700A220133A7
:400F40001A7041F2D542974B1A60314600F02EFC3146252000F0AEFC93491D2000F0EEFD022C5AD138228B4B1A70042202331A70072201331A70002501331D7001331D70E0
:400F80003F2201331A7002331D7001331D7001331D7001260A331E70502203F527631A70272201331A702C2201331A7001331D70552203331A705A2201331A7005270133B9
:400FC0001F7002331E70112201331A70192201331A70972201331A704420FFF73BFF58226F4B1A7001331D7005331F7001331E7001331D700A2201331A704FF4FA42694BC4
:401000001A603146384600F0D1FB3146252000F051FC66491D2000F091FD032C5AD138225C4B1A70042202331A70072201331A70002501331D7001331D703F2201331A70AB
:4010400002331D7001331D7001331D7001260A331E70502203F527631A70272201331A702C2201331A7001331D70552203331A705A2201331A70052701331F7002331E70C5
:40108000112201331A70192201331A70972201331A704420FFF7DEFE5822414B1A7001331D7005331F7001331E7001331D700A2201331A704FF4FA423A4B1A6031463846A1
:4010C00000F074FB3146252000F0F4FB38491D2000F034FD042C5AD138222E4B1A70042202331A70072201331A70002401331C7001331C703F2201331A7002331C700133DB
:401100001C7001331C7001250A331D70502203F527631A70272201331A702C2201331A7001331C70552203331A705A2201331A70052601331E7002331D70112201331A7011
:40114000192201331A70972201331A704420FFF781FE5822124B1A7001331C7005331E7001331D7001331C700A2201331A704FF4FA420C4B1A602946304600F017FB29462E
:40118000252000F097FB0B491D2000F0D7FCF8BDF881FF1F004E0040034E0040865800409458004084C8FF1F6D1400007114000075140000791400002DE9F04182B0394ED9
:4011C0004FF0010886F80080374F00247C74102000F0DAFA102000F05BFB07211D2000F0C1FC0425314B1D7001331C7007331C702F4A137843F0180313702E4B1C7003F20C
:40120000F5231C7001331C700A22A3F209331A7001331C7002331C705B2205331A705E2201331A7004331C701422A3F68C231A70CDF8008010234FF4004247F60271062027
:40124000FFF798FD0223009310234FF4004249F2DA012846FFF78EFD0323009310234FF4004249F2DA012846FFF784FD009510234FF4004249F2DA012846FFF77BFD337818
:40128000013B07EB83039A780B4B1A703378013B37F82320094B1A803078FFF701FE02B0BDE8F081FD80FF1FF881FF1F96580040075B0040935800400E4E00400C4E004079
:4012C00070B500F091FD06462A4B1B782A4B1A7842F001021A701A7842F010021A7010331A7842F001021A701A7842F010021A70224D2B7843F002032B70214C237843F0BD
:40130000020323701F4A137843F003031370032000F00AFC2B7803F0FD032B70237803F0FD032370184A137843F0060313707A22164B1A70164A137843F0010313701032E0
:40134000137843F0010313700F3A137843F0010313701032137843F0010313704FF000530C4A1360A2F5C0721360304600F040FD70BD00BFFD80FF1FAA430040F8460040A7
:40138000F9460040915800407758004082580040A143004080E200E008B5084B9B7C4BB9064BDB7C13F0FF0F01D1FFF705FF0122024B9A74FFF784FF08BD00BFF881FF1F34
:4013C000024A137843F0010313707047004E00400E4B1B7803F00303012B03D80C4B188880B209E00A4A12780A49087842EA0020032B01D1084B1B78084B1B7C13F0FF0F3B
:4014000002D00022054B5A7400B27047144E0040104E0040114E0040124E0040F881FF1F0F4B1B78DBB2012B06D00D4B1B78DBB2022B01D00A4B1B780A4B1B68002B00DA64
:401440001F335A1147F6122303FB00F090FBF2F00549496903FB01F393FBF2F3C01A7047FD80FF1F84C8FF1FF881FF1F704700BF704700BF704700BF704700BF054A13789E
:4014800043F0010313701032137843F001031370704700BFA8430040054B1A7802F0FD021A701A7800F0020010431870704700BF20580040014B1870704700BF805B0040FB
:4014C000064B1B78C3F3810303F19243063393F82031DBB2024A1370704700BF205800400846004008B5064B1A7802F0F3021A701A7800F00C0010431870FFF7E1FF08BDC3
:401500002058004010B50024054B1C7001331C700420FFF7E7FF2046FFF7BEFF10BD00BF2058004008B5074B1B7823B9FFF7EAFF0122044B1A70FFF7A1FF7F20FFF7BAFFD4
:4015400008BD00BF1082FF1F084A137843F0040313701032137843F00403137002F5A5521E32137843F0800313707047A9430040044A137803F0FC0300F003001843107095
:40158000704700BF09580040072809D8054B1A7802F08F021A701A780001C0B210431870704700BF0A580040032809D8054B1A7802F0F3021A701A788000C0B2104318705F
:4015C000704700BF0A58004008B50222084B1A700C2201331A70012201331A700020FFF7D3FF0320FFF7E0FF0320FFF7C1FF08BD0858004008B5054B1B7823B90122034B3D
:401600001A70FFF7E1FFFFF79FFF08BD1182FF1F084A137843F060031370A2F5A652133A137843F0080313701032137843F008031370704777580040054B1A7802F0FC02FC
:401640001A701A7800F0030010431870704700BF5E58004008B50320FFF7EEFF08BD00BF08B5054B1B7823B90122034B1A70FFF7F1FFFFF7CDFF08BD1282FF1FF0B583B05F
:4016800016461F460B4D00242C700194009423460A460146204600F0E7F93A463146287800F0BCF90221287800F0A6F9287803B0F0BD00BFFE80FF1F054A137843F00803F1
:4016C00013701032137843F008031370704700BFA8430040054B1A7802F0FD021A701A7800F0020010431870704700BF2C580040064B1B78C3F3810303F19243063393F897
:401700003831DBB2024A1370704700BF2C5800400B46004008B5064B1A7802F0F3021A701A7800F00C0010431870FFF7E1FF08BD2C58004008B50023084A137001321370D5
:4017400002F27222137843F0080313700420FFF7E1FF0220FFF7BEFF08BD00BF2C580040054A137843F0040313701032137843F004031370704700BFA2430040014B1888D6
:4017800080B2704780400040034B1A7800F0F80010431870704700BF82400040024B187800F00700704700BF8240004070B505460E46FFF7F3FF0446FFF7E0FFA84256D0FE
:4017C0002B4B1B7803F0010294B900B185B938B9284B1D80284A137803F0BF03137070BD254A137843F040031370224B1D8070BD22B3002321490B7001240F310C7004312E
:401800000B700C390B7803F07F030B701A4B1B7813F0080F00D08DB9194B18800721013B1970164B1B7813F0010FFAD110490B7803F0FE030B700021104B19700C4B1B7858
:4018400013F0010F0DD00E4B1D800EB1032200E001220A4B1A70094B1B7813F0010FFAD170BD044B1D8002490B7813430B7070BDA24300408040004082400040014000406A
:4018800002400040014B188880B2704700410040034B1A7800F0F80010431870704700BF02410040024B187800F00700704700BF0241004070B505460E46FFF7F3FF0446F1
:4018C000FFF7E0FFA84256D02B4B1B7803F0010294B900B185B938B9284B1D80284A137803F0BF03137070BD254A137843F040031370224B1D8070BD22B3002321490B705E
:40190000012413310C7004390B7008390B7803F07F030B701A4B1B7813F0080F00D08DB9194B18800721013B1970164B1B7813F0010FFAD110490B7803F0FE030B70002107
:40194000104B19700C4B1B7813F0010F0DD00E4B1D800EB1032200E001220A4B1A70094B1B7813F0010FFAD170BD044B1D8002490B7813430B7070BDA1430040004100409E
:401980000241004001400040024000400B4A7F2313708021517007E0DA0002F1804202F5F042013BDBB21370002BF5D1DB0003F1804303F5F04300221A7070470081FF1F2A
:4019C000172815D831B103010A495A5C42F020025A5405E0030107495A5C02F0DF025A540001044A835C43F00103835400207047012070471070004017280BD80001064A3C
:401A0000835C03F0F103490001F00E011943815400207047012070471070004041F6FF73994201D14FF4005141F6FF739A4201D14FF40052172808D8C00000F1804000F59C
:401A4000EC408180C280002070470120704700BF172805D8034B03EB0010417200207047012070471070004017281BD810B4C00000F1804404F5EC44D201D2B201F07F01A3
:401A8000114321709DF804201201D2B203F00F03134363709DF8083003F00F03A3700020E07001E00120704710BC704710B500F09BF90A4B5B78182B0BD9084A1478013B80
:401AC0005370E30003F1804303F5F0431B78137000E0FF2400F08CF9204610BD0081FF1F10F0800F0CD111F4704F0BD1C00000F1804000F5F04001808270C37000207047DF
:401B0000012070470120704710F0800F08D1C00000F1804000F5F0408180C280002070470120704701BE704708B5034B1B7A00FB03F000F051F908BD0881FF1F70B50446EC
:401B40000E46074B1D681F2802D90020FFF7EAFF04F01F04103455F8240045F8246070BD08ED00E038B504460D46072902D90020FFF7D8FF1F2C02D90020FFF7D3FF04F006
:401B80001F0000F1604000F564406D01EDB2057038BD00BF084A137843F0010313701032137843F00103137002F64D32137843F001031370704700BFA3430040014B18705C
:401BC000704700BF034F0040014B1880704700BF044F0040014B1880704700BF064F004008B5154A137803F0010313700232137803F0FC031370114B1A7802F0CF021A7071
:401C00001A7842F030021A701A7802F0F0021A701A7842F00F021A70094A137843F0010313700920FFF7D0FF0920FFF7D3FF0820FFF7C4FF08BD00BF004F00400B4F0040C0
:401C4000014F004008B5054B1B7823B9FFF7C8FF0122024B1A70FFF79DFF08BD1382FF1F7222074B1A70202201331A700622623B1A70472210331A7000224F331A707047BD
:401C80008A65004010B500F0AFF804460A4A137843F0200313700132137843F010031370033A137843F01003137000F057F8204600F09EF810BD00BF9A65004008B5054B7C
:401CC0001B7823B9FFF7CCFF0122024B1A70FFF7D9FF08BD1482FF1F014B1878704700BF4A650040024B187800F07F00704700BF6B65004010B5FFF7F5FF0402FFF7ECFFCA
:401D0000204380B210BD00BF044B1B7813F0200F01D0012070470020704700BF6B650040034B1B7813F0040FFAD1024B18707047686500404865004038B5074B1B782BB921
:401D400038BDFFF7EDFF0134A4B201E005460024285D0028F5D138BD1482FF1F054A137843F0020313701032137843F002031370704700BFA2430040024B1B68C3F88400CE
:401D8000704700BF08ED00E04001C0B2014B1870704700BF11E400E04FF40032014B1A60704700BF00E100E04FF40032014B1A60704700BF80E100E010B50446FFF7F4FFAA
:401DC0002046FFF7D9FF0720FFF7DEFFFFF7E4FF10BD00BF000000000230800803D000BF01380046FCD17047EFF3108072B6704780F31088704700BF0A22002100F052B9E7
:401E0000014B1868704700BF7881FF1F0E4B70B51E460E4C0025E41AA410A54204D056F8253098470135F8E700F0AEFF084B094C1E46E41AA4100025A54204D056F8253006
:401E400098470135F8E770BD942D0000942D0000942D00009C2D000010B5431E0A44914204D011F8014B03F8014FF8E710BD03460244934202D003F8011BFAE770470000E9
:401E80000EB400B54FF402719CB0ADF814106FF00041049107914FF6FF711DAB02900690084853F8042BADF81610006802A9019300F00EFA029B00221A701CB05DF804EBE1
:401EC00003B070477881FF1F10F8012B11F8013B012A28BF9A42F7D0D01A7047174B2DE9F0411D680646AC6D0F46FCB9502000F0E3F8A8658460AB6D046044601C61DC60F0
:401F0000AB6D9C615C61AB6DDC629C62AB6D5C631C63AB6DDC639C63AB6D5C641C64AB6DDC649C64AB6D1C77AB6D5C62AA6D39463046BDE8F041012300F002B87881FF1FD7
:401F4000F0B548B9106838B9F0BD17F8016B5EB1B542FAD12BB1204604460F4614F8015BF3E714600370F0BD4DB915602846F0BD17F8016BB54207D0002EF9D11C46234600
:401F80000F4613F8015BF3E715B10021217000E02B461360F0BD00002DE9F0470F4680463F48D0F800903D4615F8014B09EB0400407800F0080000F0FF0608B12F46F2E7DB
:401FC0002D2C03D1BD1C7C78012603E02B2C04BF7C78BD1C13B1102B0AD15BE0302C57D1287800F0DF0058284DD16C7810230235002E14BF4FF0004C6FF0004CBCFBF3FA27
:402000000027384603FB1ACC09EB040E9EF801E01EF0040F01D0303C0BE01EF0030E1BD0BEF1010F0CBF4FF0370E4FF0570ECEEB0404A34210DDB7F1FF3F0AD0504506D8CF
:4020400001D1644503DC03FB0040012701E04FF0FF3715F8014BD7E77B1C0CD1002E4FF0220314BF4FF000406FF00040C8F800302AB9BDE8F08706B1404272B107B1691EB2
:402080001160BDE8F0873024002BB1D10823AFE70A23ADE7302CA3D0AAE7BDE8F08700BF7C81FF1F13460A46014602480068FFF773BF00BF7881FF1F024B0146186800F016
:4020C0004FB800BF7881FF1F38B50546002944D051F8043C0C1F002BB8BFE41800F0C1FB1E4A1368114613B96360146030E0A3420DD92268A018834201BF18685B68121844
:40210000226063600C6023E0A24203D813465A68002AF9D118681918A1420BD12168014458188242196013D110685268014419605A600DE002D90C232B6009E02168601838
:40214000824201BF106852680918216062605C602846BDE8384000F085BB38BD1C82FF1F70B5CD1C25F0030508350C2D38BF0C25002D064601DBA94202D90C23336046E051
:4021800000F06FFB234B1C681A462146A1B10B685B1B0ED40B2B03D90B60CC18CD501EE08C420BBF63684B681360636018BF0C4615E00C464968E9E7174C23681BB93046FE
:4021C00000F016FB20602946304600F011FB431C18D0C41C24F00304A0420DD12560304600F040FB04F10B00231D20F00700C31A0ED05A42E25070BD211A304600F0F8FAB5
:402200000130EBD10C233360304600F02BFB002070BD00BF1C82FF1F1882FF1F2DE9F0478E6882469E420C46914698463ED88A8912F4906F3AD02568096902236F1A65693E
:4022400005EB450595FBF3F57B1C43449D4238BF1D4653050FD52946FFF782FF064698B13A462169FFF7F8FDA38923F4906343F08003A38113E02A4600F0F5FA064670B9E2
:4022800021695046FFF720FF0C23CAF80030A3894FF0FF3043F04003A381BDE8F08726613E44266046466561ED1BA560464528BF464649463246206800F0B8FAA368002030
:4022C0009B1BA36023681E442660BDE8F08700002DE9F04F9DB003938B8980461C060D4616460DD50B695BB94021FFF739FF2860286118B90C23C8F80030CDE040236B61DD
:402300000023099320238DF82930DFF89CB130238DF82A3037463C4614F8013B1BB9B7EB060910D003E0252BF9D02746F3E74B46324629464046FFF771FF013000F0A780CC
:40234000099B4B4409933B78002B00F0A08000234FF0FF3204930793059206938DF853301A930126052221784E4800F051FA671C049B38B14B4A3C46801A06FA00F0184338
:402380000490EFE7D90644BF20228DF853201A0744BF2B228DF8532022782A2A03D0079A00210A200BE0039A111D12680391002A10DA524243F00200079204900BE027465B
:4023C0003B780134303B092B03D800FB02320121F5E701B107923B782E2B1ED17B782A2B0AD1039B02371A1D1B680392002BB8BF4FF0FF33059310E0002319460593781C76
:402400000A2407463A780130303A092A03D804FB01210123F5E703B1059103223978224800F0F6F940B14023CBEB000003FA00F0049B013718430490397806221B487E1CA9
:402440008DF8281000F0E4F988B1194B33B9039B073323F007030833039314E003AB00932A46144B04A94046AFF3008007E003AB00932A460F4B04A9404600F093F8B0F1E9
:40248000FF3F824603D0099B5344099342E7AB895B0601D4099801E04FF0FF301DB0BDE8F08F00BF532D0000592D00005D2D0000000000001D2200002DE9F04791461F46E1
:4024C0000A698B6806469342B8BF1346C9F8003091F843200C46DDF8208012B10133C9F800302368990642BFD9F800300233C9F80030256815F0060510D104F1190A07E02A
:402500000123524639463046C04701301AD00135E368D9F800209B1A9D42F1DB94F843302268003318BF012392060FD5E118302081F843005A1C94F845102244023382F852
:40254000431003E04FF0FF30BDE8F08704F1430239463046C0470130F4D02268D9F80050E36802F00602042A08BF5D1B2269A3680CBF25EAE57500259342C4BF9B1AED1812
:402580004FF000091A344D4509D00123224639463046C0470130D5D009F10109F3E70020BDE8F0872DE9F04317460A7E85B06E2A984606460C460C9B01F1430E00F0AE8023
:4025C00011D8632A22D009D8002A00F0BB80582A40F0CA8081F84520834955E0642A1ED0692A1CD0C0E0732A00F0B08009D86F2A2ED0702A40F0B8800A6842F020020A6060
:402600003EE0752A24D0782A3AD0ADE01A6801F14205111D1960136884F84230A8E021681A6811F0800F02D0111D196008E011F0400F02F10401196002D0B2F9003000E013
:402640001368002B3CDA2D225B4284F8432037E021681A6811F0800F02D0111D196007E011F0400F02F10401196001D0138800E01368227E5C496F2A14BF0A2208221BE037
:4026800078225A4984F845202268186812F0800F00F104051D6003D1550601D5038800E00368D00744BF42F0200222601BB9226822F0200222601022002084F8430001E059
:4026C00049490A226568002DA56008DB206820F0040020602BB9002D7DD175460CE0002B79D07546B3FBF2F002FB1033CB5C05F8013D03460028F5D1082A0BD12368DA0706
:4027000008D5236962689A42DEBF302305F8013C05F1FF35C5EB0E0323612EE008681A6810F0800F496903D0101D1860136808E010F0400F02F104001860136801D0198032
:4027400000E0196000232361754616E01A68111D1960156800216268284600F059F808B1401B6060636804E004F1420584F8422001232361002384F84330CDF800803B464B
:4027800003AA21463046FFF797FE013002D14FF0FF3026E023692A4639463046C0470130F5D023689B0710D5002504F1190907E001234A4639463046C0470130E7D001359B
:4027C000E368039A9B1A9D42F2DBE068039B9842B8BF184605E00B7804F1420584F842308AE705B0BDE8F083642D0000752D000038B5064C0023054608462360FEF7CAF9C2
:40280000431C02D1236803B12B6038BD88C8FF1F10B5C9B202449042034605D01C7801308C42F8D1184610BD002010BD884210B501EB020301D8421E0BE09842FBD281186B
:40284000D21AD34204D013F8014D01F8014DF8E710BD994204D011F8014B02F8014FF8E710BD70477047F8B5074615460E4621B91146BDE8F840FFF773BC1AB9FFF724FC0A
:402880002846F8BD00F015F885420ED929463846FFF766FC044650B131462A46FFF7DCFA31463846FFF710FC01E03046F8BD2046F8BD51F8040C0028BEBF091851F8043C41
:4028C000C018043870470000000000007075626C69736820706F742F686561642052616E6765206E6F7420617661696C61626C652120747279203130302C35302C32352C02
:4029000031362C382C342C6F72203221000000007075626C69736820706F742F6865616420706F74656E73696F73746174207265616479200D0A00007375627363726962AB
:402940006520706F742F636D64200D0A000000007075626C69736820706F742F686561642050536F432D506F74656E73696F737461742C2072616E67653A202B2D31562C4D
:40298000202B2D3230307541200D0A007075626C69736820706F742F68656164204D6574686F64733A2043562C204C53562C2043412C20492C20532C2043414C492C2052C6
:4029C00047200D0A000000007075626C69736820706F742F68656164204379636C696320566F6C74616D657472792C4379636C652C566F7574286D56292C49696E286E4133
:402A000029200D0A000000007075626C69736820706F742F68656164204C696E69657220537765657020566F6C74616D657472792C4379636C652C566F7574286D56292CD7
:402A400049696E286E4129200D0A00007075626C69736820706F742F68656164204368726F6E6F616D7065726F6D657472792C54696D65286D73292C566F7574286D5629BC
:402A80002C49696E286E41200D0A00007075626C69736820706F742F686561642053544F50200D0A000000007075626C69736820706F742F686561642043616C69627261FB
:402AC00074652C4D756C7469706C6965722C4469766964652C4F6666736574286E4129200D0A00007075626C69736820706F742F6865616420696E697469616C2025692C50
:402B000025692C25690D0A007075626C69736820706F742F68656164206368616E67656420746F3A2025692C25692C25690D0A007075626C69736820706F742F6865616480
:402B40002043686F6F73652043757272656E742052616E6765200D0A000000007075626C69736820706F742F686561642052616E67652073657420746F203A202569202896
:402B8000544941205265736973746F72203D2025696B6F686D290D0A000000007075626C69736820706F742F646174612025692C25692C256C690D0A000000007075626C37
:402BC00069736820706F742F6461746120256C752C25692C256C690D0A000000202C3B3D000D00005300000049000000435600004C5356004341000043414C4900000000A0
:402C000052470000004F00400C00405100403000F05100401000000001400010001401400006801A0140800100400140000A004C0140000200500140200000006052004009
:402C4000E80200480600001A0140F0020048800043000020202020202020202028282828282020202020202020202020202020202020208810101010101010101010101054
:402C800010101004040404040404040404101010101010104141414141410101010101010101010101010101010101010101101010101010424242424242020202020202BA
:402CC0000202020202020202020202020202101010102000000000000000000000000000000000000000000000000000000000000000000000000000000000000000000058
:402D00000000000000000000000000000000000000000000000000000000000000000000000000000000000000000000000000000000000000000000000000000000000093
:402D400000000000000000000000000000000000000000232D302B2000686C4C00656667454647003031323334353637383941424344454600303132333435363738396154
:402D80006263646566000000F8B500BFF8BC08BC9E4670474D000000110C0000F8B500BFF8BC08BC9E46704729000000C02D0000C880FF1FB800000010470000000000002C
:402DC00000000000F807C8000100010001001400042A0000E42B0000E82B0000EC2B0000F02B0000F42B0000F82B0000002C000090C8FF1FFF01FF007F8000000100000090
:402E00000000E02EC05D00001800000000366E010000000000000000000000000000000000000000000000000000000000000000502C00000000000000000000000000002E
:402E40000000000000000000000000000000000000000000000000000000000000000000000000000000000000000000000000001881FF1F522C000000000000000000001D
:402E80000000000000000000000000000000000000000000000000000000000000000000000000000000000000000000000000000000000000000000000000000000000012
:402EC00000000000000000000000000000000000000000000000000000000000000000000000000000000000000000000000000000000000000000000000000000000000D2
:402F00000000000000000000000000000000000000000000000000000000000000000000000000000000000000000000000000000000000000000000000000000000000091
:402F40000000000000000000000000000000000000000000000000000000000000000000000000000000000000000000000000000000000000000000000000000000000051
:020000040003F7
:0200000480007A
:40000000024F0040015A004003650040010501400107014002090140020B0140010D0140010F014001150140741801403F190140141A0140421B0140024001400141014052
:4000400003420140044301400444014003460140034701400748014002490140084D0140025001400151014001300A369F01880F8A728B38E002E4019D01E4019D01E002CB
:400080009D018D01EA0403080410055306AC0704080C09030A710B440C090ED015531603170C18141E202120234524DC250A26222754281029802A403140321F330F34E009
:4000C00035803730380239803A203B083E013F1140644102450B46C0470E481949FF4AFF4BFF4EF04F44500C5401580459045A045B045C115D115F0166C06A406B02808087
:400100008240842C851786038A088D018F069102920C930994C0983199179A0E9D10A104A213A301A4C0A831A920AA06AC40AE80B0C0B107B20FB310B430B508B720B820BA
:40014000BA08BE10BF40C002C704C9FFCA07CBFFCC40CD20CEF0CF05D008D804D904DA04DC11DD01DF01E040E1A8E240E320010A020405100602071109110A240C800E2045
:400180000F081082110412081302141016041804190A1D111E241F0821882220234024402608271929022B082C982D0830023250360839043B403D023E163F204004451092
:4001C000470248804E084F085204540857105C405E105F09800883019D01C0EEC2EEC46FCAE5CC4DCEEAD0A4D220D6F08204860288018C0192029601AA04AE01B001B202BE
:40020000B404B802BA80BE14D418D804DB04DC01DD10DF0100440102040205600611082109800A100B400D020E101082131415201780180519251A101DC21E041F04204054
:40024000211023812821292230823104322038683A014021411849605001521059015F016680670869046AA07094731488028A849340950496A09902A108A220A402A9014A
:40028000AD80C0FDC23FC4CFCA0FCC0FCE0FD00ED20CD681D830EC023C10CE20941087019410E040801094109F01E4807D088D04DE01E40245088508D00132408240CC0836
:4002C00024102701650194109F01C8A0D880A901EA20108074048880A004AC04C408DE04E60110021C021002808000004000000002FF800033180C00000800001C3C23C2EC
:40030000034440001F1C20E1000023043F10000008800000040000E30CE7001801C08000101F2C000F38C0C00000280200004100630502000100E0C028FFFFFF62A0F041D9
:400340000C0000000000021304040404111100010000000000004002001030100010101200000000000000000000000000000000000000000000060080004080800080001F
:4003800000000000000B0B0000000000000000000000F0002500180100000000000000000000000000000000000000000000000000000000000000000000000000000000F9
:4003C00000000000000000000000000000000000000000000000000000000000000000000000000000000000000000000000000000000000000000000000000000000000FD
:4004000000000000000000000000000000000000000000000000000000000000000000000000000000000000000000000000000000000000000000000000000000000000BC
:40044000000000000000000000000000000000000000000000000000000000000000000000000000000000000000000000000000000000000000000000000000000000007C
:40048000000000000000000000000000000000000000000000000000000000000000000000000000000000000000000000000000000000000000000000000000000000003C
:0200000490006A
:0400000000004005B7
:0200000490105A
:04000000BC90ACAF55
:0200000490303A
:02000000CAD163
:0200000490402A
:4000000000000000000000000000000000000000000000000000000000000000000000000000000000000000000000000000000000000000000000000000000000000000C0
:400040000000000000000000000000000000000000000000000000000000000000000000000000000000000000000000000000000000000000000000000000000000000080
:400080000000000000000000000000000000000000000000000000000000000000000000000000000000000000000000000000000000000000000000000000000000000040
:4000C0000000000000000000000000000000000000000000000000000000000000000000000000000000000000000000000000000000000000000000000000000000000000
:0200000490501A
:0C00000000012E16106900012E26DB3ACC
:00000001FF